S113000046C08FC05EC05DC05CC05BC05AC059C0F2
S113001058C057C056C055C054C053C052C051C038
S113002050C04FC04EC000000D090EA71571163107
S11300301A7A1B731C611D771E3221632278236494
S113004024652534263329202A762B662C742D72B8
S11300502E35316E326233683467357936363A6D0F
S11300603B6A3C753D373E38412C426B4369446FD3
S113007045304639492E4A2D4B6C4CF64D704E2B6B
S113008052E454E5555E5A135BFC5D2700001124CD
S11300901FBECFE5D4E0DEBFCDBF10E0A0E6B0E0E8
S11300A0E8E0F2E002C005900D92A036B107D9F75E
S11300B010E0A0E6B0E001C01D92A936B107E1F757
S11300C002C09ECF0895CFE5D4E0DEBFCDBF0CD0F3
S11300D092D0C82F8823E1F360E061D08823C1F374
S11300E060E08C2F5CD0F4CF109268001092620014
S11300F0E5E6F0E082E01192815087FFFCCF08959D
S113010090916800E92FFF27EB59FF4F8083892FD7
S11301108F5F80936800833010F010926800089518
S113012008951F920F920FB60F9211242F933F93AD
S11301304F935F936F937F938F939F93AF93BF93EB
S1130140EF93FF9390916000892F8350883050F48F
S113015080916100869580936100B19B03C08068A3
S113016080936100892F815080936000882331F44B
S113017080916100C5DF8BE080936000FF91EF9177
S1130180BF91AF919F918F917F916F915F914F91AB
S11301903F912F910F900FBE0F901F901895982F9D
S11301A0662319F0E6E2F0E002C0E8E2F0E08491B0
S11301B0891749F0882339F0E2E0F0E08491891747
S11301C011F08823E1F7319684919927089580915D
S11301D06200E82FFF27EB59FF4F9081992341F0EC
S11301E010828F5F80936200833010F0109262005F
S11301F0892F99270895EBDF992708950895809111
S10B020063009091640008956D
S9030000FC
